{
  "contractName": "Grievance",
  "abi": [
    {
      "constant": true,
      "inputs": [],
      "name": "complaintCount",
      "outputs": [
        {
          "internalType": "uint256",
          "name": "",
          "type": "uint256"
        }
      ],
      "payable": false,
      "stateMutability": "view",
      "type": "function"
    },
    {
      "constant": true,
      "inputs": [
        {
          "internalType": "uint256",
          "name": "",
          "type": "uint256"
        }
      ],
      "name": "complaints",
      "outputs": [
        {
          "internalType": "uint256",
          "name": "id",
          "type": "uint256"
        },
        {
          "internalType": "bytes32",
          "name": "studentHash",
          "type": "bytes32"
        },
        {
          "internalType": "string",
          "name": "ipfsHash",
          "type": "string"
        },
        {
          "internalType": "uint256",
          "name": "voteCount",
          "type": "uint256"
        },
        {
          "internalType": "bool",
          "name": "resolved",
          "type": "bool"
        }
      ],
      "payable": false,
      "stateMutability": "view",
      "type": "function"
    },
    {
      "constant": false,
      "inputs": [
        {
          "internalType": "bytes32",
          "name": "_studentHash",
          "type": "bytes32"
        },
        {
          "internalType": "string",
          "name": "_ipfsHash",
          "type": "string"
        }
      ],
      "name": "fileComplaint",
      "outputs": [],
      "payable": false,
      "stateMutability": "nonpayable",
      "type": "function"
    },
    {
      "constant": false,
      "inputs": [
        {
          "internalType": "uint256",
          "name": "_id",
          "type": "uint256"
        },
        {
          "internalType": "bool",
          "name": "_approve",
          "type": "bool"
        }
      ],
      "name": "voteOnComplaint",
      "outputs": [],
      "payable": false,
      "stateMutability": "nonpayable",
      "type": "function"
    },
    {
      "constant": true,
      "inputs": [
        {
          "internalType": "uint256",
          "name": "_id",
          "type": "uint256"
        }
      ],
      "name": "getComplaint",
      "outputs": [
        {
          "internalType": "uint256",
          "name": "",
          "type": "uint256"
        },
        {
          "internalType": "bytes32",
          "name": "",
          "type": "bytes32"
        },
        {
          "internalType": "string",
          "name": "",
          "type": "string"
        },
        {
          "internalType": "uint256",
          "name": "",
          "type": "uint256"
        },
        {
          "internalType": "bool",
          "name": "",
          "type": "bool"
        }
      ],
      "payable": false,
      "stateMutability": "view",
      "type": "function"
    }
  ],
  "bytecode": "0x60806040526000805534801561001457600080fd5b506107fa806100246000396000f3fe608060405234801561001057600080fd5b50600436106100575760003560e01c80632edea2941461005c5780636cd558401461007a5780637e69e912146100b4578063affefce81461017b578063dee8ae4314610240575b600080fd5b610064610307565b6040518082815260200191505060405180910390f35b6100b26004803603604081101561009057600080fd5b810190808035906020019092919080351515906020019092919050505061030d565b005b6100e0600480360360208110156100ca57600080fd5b8101908080359060200190929190505050610422565b604051808681526020018581526020018060200184815260200183151515158152602001828103825285818151815260200191508051906020019080838360005b8381101561013c578082015181840152602081019050610121565b50505050905090810190601f1680156101695780820380516001836020036101000a031916815260200191505b50965050505050505060405180910390f35b61023e6004803603604081101561019157600080fd5b8101908080359060200190929190803590602001906401000000008111156101b857600080fd5b8201836020820111156101ca57600080fd5b803590602001918460018302840111640100000000831117156101ec57600080fd5b91908080601f016020809104026020016040519081016040528093929190818152602001838380828437600081840152601f19601f8201169050808301925050505050505091929192905050506104fd565b005b61026c6004803603602081101561025657600080fd5b81019080803590602001909291905050506105b1565b604051808681526020018581526020018060200184815260200183151515158152602001828103825285818151815260200191508051906020019080838360005b838110156102c85780820151818401526020810190506102ad565b50505050905090810190601f1680156102f55780820380516001836020036101000a031916815260200191505b50965050505050505060405180910390f35b60005481565b6001600083815260200190815260200160002060040160009054906101000a900460ff16156103a4576040517f08c379a00000000000000000000000000000000000000000000000000000000081526004018080602001828103825260108152602001807f416c7265616479207265736f6c7665640000000000000000000000000000000081525060200191505060405180910390fd5b80156103d15760016000838152602001908152602001600020600301600081548092919060010191905055505b600360016000848152602001908152602001600020600301541061041e57600180600084815260200190815260200160002060040160006101000a81548160ff0219169083151502179055505b5050565b6001602052806000526040600020600091509050806000015490806001015490806002018054600181600116156101000203166002900480601f0160208091040260200160405190810160405280929190818152602001828054600181600116156101000203166002900480156104da5780601f106104af576101008083540402835291602001916104da565b820191906000526020600020905b8154815290600101906020018083116104bd57829003601f168201915b5050505050908060030154908060040160009054906101000a900460ff16905085565b60008081548092919060010191905055506040518060a001604052806000548152602001838152602001828152602001600081526020016000151581525060016000805481526020019081526020016000206000820151816000015560208201518160010155604082015181600201908051906020019061057f9291906106ec565b506060820151816003015560808201518160040160006101000a81548160ff0219169083151502179055509050505050565b60008060606000806105c161076c565b600160008881526020019081526020016000206040518060a00160405290816000820154815260200160018201548152602001600282018054600181600116156101000203166002900480601f01602080910402602001604051908101604052809291908181526020018280546001816001161561010002031660029004801561068c5780601f106106615761010080835404028352916020019161068c565b820191906000526020600020905b81548152906001019060200180831161066f57829003601f168201915b50505050508152602001600382015481526020016004820160009054906101000a900460ff161515151581525050905080600001518160200151826040015183606001518460800151829250955095509550955095505091939590929450565b828054600181600116156101000203166002900490600052602060002090601f016020900481019282601f1061072d57805160ff191683800117855561075b565b8280016001018555821561075b579182015b8281111561075a57825182559160200191906001019061073f565b5b50905061076891906107a0565b5090565b6040518060a00160405280600081526020016000801916815260200160608152602001600081526020016000151581525090565b6107c291905b808211156107be5760008160009055506001016107a6565b5090565b9056fea265627a7a7231582054078adab5a0932ee19fe22162f1b7aaad3637b19eec0ec80bc821ed4b98934264736f6c63430005100032",
  "source": "// SPDX-License-Identifier: MIT\r\npragma solidity ^0.5.16;\r\n\r\ncontract Grievance {\r\n\r\n    struct Complaint {\r\n        uint id;\r\n        bytes32 studentHash;\r\n        string ipfsHash;\r\n        uint voteCount;\r\n        bool resolved;\r\n    }\r\n\r\n    uint public complaintCount = 0;\r\n\r\n    mapping(uint => Complaint) public complaints;\r\n\r\n    // File complaint\r\n    function fileComplaint(bytes32 _studentHash, string memory _ipfsHash) public {\r\n        complaintCount++;\r\n\r\n        complaints[complaintCount] = Complaint(\r\n            complaintCount,\r\n            _studentHash,\r\n            _ipfsHash,\r\n            0,\r\n            false\r\n        );\r\n    }\r\n\r\n    // Vote on complaint\r\n    function voteOnComplaint(uint _id, bool _approve) public {\r\n        require(!complaints[_id].resolved, \"Already resolved\");\r\n\r\n        if (_approve) {\r\n            complaints[_id].voteCount++;\r\n        }\r\n\r\n        // Resolve after 3 votes\r\n        if (complaints[_id].voteCount >= 3) {\r\n            complaints[_id].resolved = true;\r\n        }\r\n    }\r\n\r\n    // Get complaint\r\n    function getComplaint(uint _id) public view returns (\r\n        uint, bytes32, string memory, uint, bool\r\n    ) {\r\n        Complaint memory c = complaints[_id];\r\n        return (c.id, c.studentHash, c.ipfsHash, c.voteCount, c.resolved);\r\n    }\r\n}",
  "sourcePath": "C:\\Users\\DELL\\student-grievance-blockchain\\blockchain\\contracts\\Grievance.sol",
  "compiler": {
    "name": "solc",
    "version": "0.5.16+commit.9c3226ce.Emscripten.clang"
  },
  "schemaVersion": "3.4.16",
  "updatedAt": "2026-04-13T09:41:09.713Z",
  "devdoc": {
    "methods": {}
  },
  "userdoc": {
    "methods": {}
  }
}